:100000000C9434000C9451000C9451000C94510049
:100010000C9451000C9451000C9451000C9451001C
:100020000C9451000C9451000C9451000C94B101AB
:100030000C9451000C9451000C9451000C945100FC
:100040000C94EF000C9451000C9400020C9451009D
:100050000C9451000C9451000C9451000C945100DC
:100060000C9451000C94510011241FBECFEFD8E026
:10007000DEBFCDBF11E0A0E0B1E0E8E6F4E002C0F1
:1000800005900D92AA30B107D9F721E0AAE0B1E0BE
:1000900001C01D92A131B207E1F70E94C1000C948A
:1000A00032020C940000E4E6F0E080818E7F8083D1
:1000B000ECE7F0E0808183608083808180648083CE
:1000C000EAE7F0E08081877C80838081887F80837D
:1000D0000895EAE7F0E08081806C8083409A08957B
:1000E000EAE7F0E080818F73808340980895CF9293
:1000F000DF92EF92FF921F93CF93DF9310E0E12CFA
:10010000F12CCAE7D0E00F2EF8E7CF2ED12CF02D3E
:100110000E946900888186FDFDCFF6018081918172
:10012000E80EF91E1F5F103899F70E947000C70192
:10013000DF91CF911F91FF90EF90DF90CF900895C6
:100140008AB1806C8AB9209A8BB18F738BB9289849
:10015000209A409808950E9421020E94A0000E94C7
:1001600014010E94C2010E945300789410920C0165
:1001700010920D0110920E0110920F0110921001B9
:100180000895CF93DF93CDB7DEB72A970FB6F894D3
:10019000DEBF0FBECDBF0E94AB000E941B0180914D
:1001A0000C0180FF09C0CE0101960E9439018091A7
:1001B0000C018E7F80930C0180910B01882379F3D1
:1001C0000E94100210920B01EACF16BC10920D0192
:1001D00010920E0110920F011092100108951F92BB
:1001E0000F920FB60F9211248F939F93AF93BF93EB
:1001F00080910D0190910E01A0910F01B09110011D
:100200000196A11DB11D80930D0190930E01A09345
:100210000F01B0931001BF91AF919F918F910F90FB
:100220000FBE0F901F90189584B58C7084BD85B556
:10023000826085BD0895109289008DE780938800C3
:100240001092850010928400E1E8F0E080818260E5
:1002500080830895E1E8F0E08081887F80830E94B8
:100260007000E4E6F0E080818960808310920A01EA
:100270000895CF93DF93EC0180910A01813069F4F6
:100280000E9477009983888380E091E00E94DA01E0
:10029000888199810E94F7015CC0853069F40E94D1
:1002A00077009B838A8382E091E00E94DA018A8151
:1002B0009B810E94F7014DC0893069F40E9477004C
:1002C0009D838C8384E091E00E94DA018C819D8182
:1002D0000E94F7013EC08D3069F40E9477009F8331
:1002E0008E8386E091E00E94DA018E819F810E94D8
:1002F000F7012FC0813169F40E94770099878887C0
:1003000088E091E00E94DA01888599850E94F701D2
:1003100020C0873219F410920A0120C00E94700098
:1003200080910A01811102C05E9A13C0843011F4D9
:100330005E980FC0883011F45F9A0BC08C3011F4B6
:100340005F9807C0803111F4289A03C0843109F402
:10035000289880910A018F5F80930A01DF91CF91E5
:1003600008951F920F920FB60F9211248F938091D0
:100370000C01816080930C018F910F900FBE0F9044
:100380001F901895E0E8F0E080818C708083E1E8B0
:10039000F0E0808188608083EFE6F0E08081826019
:1003A00080830895E0ECF0E0908195FFFDCF80938D
:1003B000C60008950F931F93CF93DF93FC01019024
:1003C0000020E9F73197E81BF90B1E161F0654F4BD
:1003D000EC018C010E0F1F1F89910E94D201C017E2
:1003E000D107D1F7DF91CF911F910F910895CF934E
:1003F000C92F0E94D2018C2F0E94D201CF91089563
:100400001F920F920FB60F9211248F938091C60006
:1004100080930B018F910F900FBE0F901F90189536
:1004200080910B01813019F40E94E500089582301B
:1004300019F40E941B010895833011F40E942A01CF
:100440000895E4E6F0E080818D7F80831092C500FE
:1004500081E08093C40088E98093C10086E38093A3
:08046000C2000895F894FFCFDB
:0A04680072003100690032006700E5
:00000001FF
